:1000000089C00000A4C00000A2C00000A0C0000081
:100010009EC000009CC000009AC0000098C0000074
:1000200096C0000094C0000092C0000090C0000084
:100030008EC000008CC000008AC0000088C0000094
:1000400086C0000084C0000082C0000080C00000A4
:100050007EC000007CC000007AC0000078C00000B4
:1000600076C0000074C0000072C0000070C00000C4
:100070006EC000006CC00000D1C2000068C000006B
:1000800066C0000064C0000062C00000EC02BC0258
:10009000CC02060306030603060306030603DC027E
:1000A0000603060306030603060306030603060308
:1000B0000603060376020603060306030603060389
:1000C00006030603AD020603060306030603060342
:1000D0009E025902060306030603060306030603EF
:1000E00006030603060306030603060306030603C8
:1000F0000603060376020603060306030603060349
:1001000006030603AD020603060306030603060301
:100110009E02590211241FBECFEFD0E1DEBFCDBF3A
:1001200012E0A0E0B1E0E6EBFCE000E00BBF02C0B3
:1001300007900D92AE31B107D9F722E0AEE1B2E0FF
:1001400001C01D92A934B207E1F7A5D2B2C558CFBC
:100150001816190644F469E070E0A0D270931F02EB
:1001600060931E020895992344F469E070E096D2EA
:1001700070931F0260931E02089510921F02109246
:100180001E020895AC0120E007C090919B0095FFEE
:10019000FCCF30939C002F5FFA01E20FF11D3081FC
:1001A0003111F3CF0895811154C080912602883017
:1001B00088F420912202309123022431310554F435
:1001C0008F5F809326022F5F3F4F3093230220934F
:1001D000220211C0883078F080912202909123028F
:1001E0008431910544F421E02093260201969093F6
:1001F000230280932202809122029091230245974C
:1002000034F084E190E09093230280932202809165
:100210002202909123029C01220F331F220F331FD1
:10022000220F331F820F931F909325028093240285
:10023000E0912602F0E0E050FF4F808183B92FE784
:1002400088E391E0215080409040E1F700C0000039
:1002500056C080912602823090F020912202309187
:1002600023022D3E9FEF390754F0815080932602E0
:1002700021503109309323022093220212C0823090
:1002800080F480912202909123028D3E2FEF9207FD
:1002900044F028E020932602019790932302809354
:1002A000220280912202909123028C3E9F4F34F4CF
:1002B0008CEE9FEF90932302809322028091220282
:1002C000909123029C01220F331F220F331F220F14
:1002D000331F820F931F9093250280932402E09195
:1002E0002602F0E0E050FF4F808183B98FE798E36A
:1002F00021E0815090402040E1F700C00000809153
:1003000021028F93809120028F93809123028F93FB
:10031000809122028F93809125028F9380912402F5
:100320008F93809126021F928F9389E091E09F9393
:100330008F938BE292E09F938F93E0D18BE292E0D8
:1003400021DF8DB79EB70C960FB6F8949EBF0FBEF7
:100350008DBF0895FDDE02C080E025DF20912202DE
:100360003091230280911E0290911F0228173907B5
:100370009CF302C081E017DF80912202909123025A
:1003800020911E0230911F02281739079CF32091FB
:1003900021022F93209120022F939F938F9380917E
:1003A00025028F93809124028F93809126021F92C1
:1003B0008F9389E091E09F938F938BE292E09F93DC
:1003C0008F939CD18BE292E0DDDE8DB79EB70C96C9
:1003D0000FB6F8949EBF0FBE8DBF0895919581957D
:1003E0009109B6DE02C080E0DEDE2091220230916B
:1003F000230280911E0290911F02281739079CF357
:1004000009C080912602811103C088E080932602F2
:1004100081E0C9DE809122029091230220911E0288
:1004200030911F022817390764F3209121022F937E
:10043000209120022F939F938F93809125028F9379
:10044000809124028F93809126021F928F9389E0DE
:1004500091E09F938F938BE292E09F938F934ED185
:100460008BE292E08FDE8DB79EB70C960FB6F894B4
:100470009EBF0FBE8DBF089580912A0280FFC6C027
:1004800080912A0281FF06C0EAE2F2E080818D7F3E
:100490008083BCC0E0912802E09327028E2F90E079
:1004A000FC01F097E434F10508F0B0C0EA5BFF4FBF
:1004B00008C18091220290912302809320029093A0
:1004C00021029F938F9385E591E09F938F938BE219
:1004D00092E09F938F9312D18BE292E053DE0F90C4
:1004E0000F900F900F900F900F9090C080E090E0D1
:1004F00031DF809122029091230280932002909319
:10050000210220911F022F9320911E022F939F936F
:100510008F938EE791E09F938F938BE292E09F936E
:100520008F93ECD08BE292E02DDE8DB79EB70896CC
:100530000FB6F8949EBF0FBE8DBF68C08DE0EEEB86
:10054000F1E0ABE2B2E001900D928A95E1F78BE227
:1005500092E018DE80E027DE59C08DE0EBECF1E0A0
:10056000ABE2B2E001900D928A95E1F78BE292E066
:1005700009DE81E018DE4AC08FE0E8EDF1E0ABE291
:10058000B2E001900D928A95E1F78BE292E0FADDFC
:1005900084EB90E0DFDE3AC080E1E7EEF1E0ABE231
:1005A000B2E001900D928A95E1F78BE292E0EADDEC
:1005B00084EB90E013DF2AC08EE0E7EFF1E0ABE2DE
:1005C000B2E001900D928A95E1F78BE292E0DADDDC
:1005D0008AE590E0BFDE1AC088E1E5E0F2E0ABE238
:1005E000B2E001900D928A95E1F78BE292E0CADDCC
:1005F00080912002909121029C01220F331F220F33
:10060000331F220F331F820F931FA4DEEAE2F2E0B2
:1006100080818E7F80831092270208951F920F920F
:100620000FB60F9211240BB60F928F93EF93FF9397
:1006300080919B00E8E2F2E081838181887129F05A
:10064000EAE2F2E080818260808380919C00809366
:100650002802EAE2F2E0808181608083FF91EF91DD
:100660008F910F900BBE0F900FBE0F901F9018959B
:100670008FE082B983B91092980087E68093990041
:1006800082E080939B0088E980939A0086E08093C3
:100690009D0078940895ECDFEFDEFECF97FB072EE8
:1006A00016F4009406D077FD08D014D007FC05D0CE
:1006B0003EF4909581959F4F0895709561957F4F79
:1006C0000895EE0FFF1F0024001C0BBE0790F6914B
:1006D000E02D0994AA1BBB1B51E107C0AA1FBB1F39
:1006E000A617B70710F0A61BB70B881F991F5A95BE
:1006F000A9F780959095BC01CD0108950F931F93A4
:10070000CF93DF93CDB7DEB72E970FB6F894DEBF49
:100710000FBECDBF0D891E8986E08C831A830983A5
:100720008FEF9FE79E838D83AE01475E5F4F6F899A
:10073000788DCE01019610D0EF81F885E00FF11F82
:1007400010822E960FB6F894DEBF0FBECDBFDF919C
:10075000CF911F910F9108952F923F924F925F92E8
:100760006F927F928F929F92AF92BF92CF92DF92C1
:10077000EF92FF920F931F93CF93DF93CDB7DEB726
:100780002B970FB6F894DEBF0FBECDBF6C017B0177
:100790008A01FC0117821682838181FFBFC1CE01CD
:1007A00001963C01F6019381F70193FD859193FF3A
:1007B00081917F01882309F4ADC1853239F493FD1D
:1007C000859193FF81917F01853221F4B60190E0FC
:1007D000D6D1E8CF912C212C312CFFE1F315D8F0A4
:1007E0008B3279F038F4803279F08332A1F4232D02
:1007F00020611DC08D3261F0803369F4232D2160AA
:1008000016C0832D8260382EE32DE4603E2E2AC070
:10081000F32DF8601DC037FC2DC020ED280F2A30C5
:1008200040F08E32B9F436FC75C1232D2064322E8F
:1008300019C036FE06C08AE0989E200D1124922E23
:1008400011C0EAE02E9E200D1124222EF32DF0621D
:100850003F2E08C08C3621F4832D8068382E02C0CC
:10086000883641F4F70193FD859193FF81917F01D3
:100870008111B3CF982F9F7D9554933028F40C5F4E
:100880001F4F9FE399830DC0833631F0833771F09A
:10089000833509F055C020C0F801808189830E5F3F
:1008A0001F4F88248394912C530112C02801F2E039
:1008B0004F0E511CF801A080B18036FE03C0692D97
:1008C00070E002C06FEF7FEFC5014ED14C01820195
:1008D000F32DFF773F2E15C0280122E0420E511C58
:1008E000F801A080B18036FE03C0692D70E002C01F
:1008F0006FEF7FEFC5012DD14C01F32DF0683F2E36
:10090000820133FC19C0822D90E088169906A0F46C
:10091000B60180E290E033D12A94F5CFF50137FC9F
:10092000859137FE81915F01B60190E028D12110B9
:100930002A9421E0821A91088114910479F7E1C088
:10094000843611F0893639F5F80137FE07C0608129
:100950007181828193810C5F1F4F08C0608171811A
:10096000072E000C880B990B0E5F1F4FF32DFF769F
:100970003F2E97FF09C090958095709561957F4FA8
:100980008F4F9F4FF0683F2E2AE030E0A30133D114
:10099000882E861844C0853731F4232D2F7EB22E41
:1009A0002AE030E025C0932D997FB92E8F36C1F013
:1009B00018F4883579F0AEC0803719F0883721F007
:1009C000A9C0E92FE061BE2EB4FE0DC0FB2DF4607E
:1009D000BF2E09C034FE0AC0292F2660B22E06C0E1
:1009E00028E030E005C020E130E002C020E132E044
:1009F000F801B7FE07C060817181828193810C5F2D
:100A00001F4F06C06081718180E090E00E5F1F4F34
:100A1000A301F1D0882E8618FB2DFF773F2E36FEDE
:100A20000DC0232D2E7FA22E891458F434FE0BC046
:100A300032FC09C0832D8E7EA82E05C0B82CA32CB5
:100A400003C0B82C01C0B92CA4FE0FC0FE01E80DF4
:100A5000F11D8081803321F49A2D997EA92E09C041
:100A6000A2FE06C0B394B39404C08A2D867809F020
:100A7000B394A3FC10C0A0FE06C0B21480F4280CEE
:100A8000922C9B180DC0B21458F4B60180E290E08D
:100A900076D0B394F8CFB21418F42B1802C0982C67
:100AA000212CA4FE0FC0B60180E390E068D0A2FE26
:100AB00016C0A1FC03C088E790E002C088E590E082
:100AC000B6010CC08A2D867851F0A1FE02C08BE2DF
:100AD00001C080E2A7FC8DE2B60190E050D08914FD
:100AE00030F4B60180E390E04AD09A94F8CF8A942B
:100AF000F301E80DF11D8081B60190E040D0811036
:100B0000F6CF222009F44ECEB60180E290E037D035
:100B10002A94F7CFF6018681978102C08FEF9FEF6D
:100B20002B960FB6F894DEBF0FBECDBFDF91CF91ED
:100B30001F910F91FF90EF90DF90CF90BF90AF90FB
:100B40009F908F907F906F905F904F903F902F90ED
:100B50000895FC010590615070400110D8F7809510
:100B600090958E0F9F1F0895FC0161507040019079
:100B70000110D8F7809590958E0F9F1F08950F93C1
:100B80001F93CF93DF93FB01238121FD03C08FEFE0
:100B90009FEF2CC022FF16C04681578124813581EA
:100BA0004217530744F4A081B1819D012F5F3F4F4D
:100BB000318320838C93268137812F5F3F4F37838A
:100BC000268314C08B01EC01FB010084F185E02D2C
:100BD0000995892BE1F6D80116968D919C9117976E
:100BE000019617969C938E931697CE01DF91CF9125
:100BF0001F910F910895FA01AA27283051F1203151
:100C000081F1E8946F936E7F6E5F7F4F8F4F9F4FA0
:100C1000AF4FB1E03ED0B4E03CD0670F781F891FE2
:100C20009A1FA11D680F791F8A1F911DA11D6A0FB0
:100C3000711D811D911DA11D20D009F468943F9163
:100C40002AE0269F11243019305D3193DEF6CF0162
:100C50000895462F4770405D4193B3E00FD0C9F728
:100C6000F6CF462F4F70405D4A3318F0495D31FD95
:100C70004052419302D0A9F7EACFB4E0A6959795E8
:100C8000879577956795BA95C9F7009761057105BE
:100C900008959B01AC010A2E069457954795379508
:100CA0002795BA95C9F7620F731F841F951FA01D62
:060CB0000895F894FFCF47
:100CB60000080C040602030109506F736963616F33
:100CC6005F666173653A202569207C2020416E6746
:100CD600756C6F3A202569207C2020496D706C75F3
:100CE600736F733A202569207C2020496D706C75DE
:100CF600736F7320477561726461646F733A202560
:100D060069200D0A0028446566696E65205265668D
:100D16006572656E6369612920496D70756C736FC4
:100D26002053617665643A202569200D0A0028441F
:100D3600656661756C7420416E67756C6F2030292D
:100D460020496D70756C736F2053617665643A3A0D
:100D5600202569207C20496D70756C736F20446571
:100D660066696E69646F3A202569200D0A0028417C
:100D76006E67756C6F2B2B290D0A0028416E6775FF
:100D86006C6F2D2D290D0A0028416E67756C6F203A
:100D9600313830290D0A0028416E67756C6F202D99
:100DA600313830290D0A0028416E67756C6F20397D
:100DB60030290D0A0028416E67756C6F203020724D
:0E0DC60065666572656E636961290D0A00003D
:00000001FF
